:020000040800F2
:10800000D01800208181000851B400088582000842
:108010008D8100088F810008918100080000000018
:1080200000000000B6B6FE0F5081000893810008E2
:108030009581000800000000D381000801BC000801
:108040009B8100089B8100089B8100089B810008A0
:108050009B810008A1B50008799B0008CD9B000812
:108060009B8100089B810008E99B00089B81000818
:10807000D1980008D7980008DD980008E398000818
:10808000E9980008EF9800089B81000815C30008D4
:108090009B810008599600089B810008059C0008F8
:1080A0009B8100080DBF00089B81000889BE000865
:1080B00031BF000849BF000869BF00089B81000864
:1080C0009B8100089B8100089B8100089B81000820
:1080D0009B81000801C3000807C300080DC3000806
:1080E000959B00089B8100089B8100089B810008EC
:1080F0009B8100089B8100089B8100089B810008F0
:108100009B8100089B8100089B8100089B810008DF
:108110008BBF000891BF00089B8100089B8100086D
:108120009B8100089B8100089B8100089B810008BF
:108130009B8100089B8100089B8100089B810008AF
:108140009B8100089B8100089B8100089B8100089F
:10815000A5A5EDFE0000000000000000D4220100F3
:1081600001586E6E01000000DFF810D001F056F8E3
:1081700000480047D5330108AFF30080D018002035
:108180000648804706480047FEE7FEE7FEE7FEE7B1
:10819000FEE7FEE7FEE7FEE7FEE7FEE749BC000874
:1081A00069810008EFF3108072B6704780F3108881
:1081B0007047424A1368012B04D04FF0010313604B
:1081C0003F4A10603F4A11603F484FF080510160C4
:1081D0007047EFF3108272B63848016851B34FF020
:1081E000000101603648016891B1EFF309811EF08A
:1081F000100F08BF21ED108B21E9F00F4FF00004A4
:108200001EF0100F08BF012441F8044D0068016002
:108210002C490968096808C9B1E8F00F002B18BF9C
:10822000B1EC108B81F309884EF0100E002B18BFB3
:108230002EF0100E82F310884EF0040E7047214984
:108240000860EFF3148222F0040282F314881C49C0
:108250004FF00000086019494FF0010008601B480A
:108260001B49D0F8002041EA0201016016484FF096
:108270008051016017480068006880F3088861B683
:1082800062B670471EF0040F0CBFEFF30880EFF3E7
:10829000098020E9F00F40F804ED40F804ED1EF0ED
:1082A000040F0CBF80F3088880F3098800B50DF037
:1082B0002BF85DF804EB4EF0040E7047000500202B
:1082C000F8040020FC04002004ED00E020ED00E0B4
:1082D0000000FFFF08ED00E02DE9F05F05460020FB
:1082E00092469B4688460646814640241BE0284627
:1082F00041464746224600F094FD53465A46C01A6E
:10830000914110D311461846224600F07BFD2D1AEC
:1083100067EB01084F4622460120002100F072FD64
:1083200017EB00094E41201EA4F10104DFDC484692
:1083300031462A464346BDE8F09F40EA01039B07C9
:1083400003D009E008C9121F08C0042AFAD203E0CA
:1083500011F8013B00F8013B521EF9D27047D2B22E
:1083600001E000F8012B491EFBD270470022F6E71E
:1083700010B513460A4604461946FFF7F0FF20469B
:1083800010BDCAB2401E10F8011F8A4202D0002957
:10839000F9D100207047421C10F8011B0029FBD1C5
:1083A000801A704710B5002200E0521C835C8C5C80
:1083B000A34201D1002BF8D1D8B2E1B2401A10BDCE
:1083C00030B505460020034600E05B1C934205D211
:1083D000EC5CC85C201A01D1002CF6D130BD000045
:1083E0000FB400B58DB010A909900B9000914FF01B
:1083F000FF300A9000200C90054806900548079031
:108400006A4609A80F9900F051FD0DB05DF814FB04
:10841000C98E0008E78E00082DE9FF5F1D464FF06A
:10842000FF3BD5E9014691465F464FF00008A96938
:108430007F1C01988847296A824688470028F6D120
:10844000BAF1FF3F0CD024F4C064002E19DD6006A1
:1084500014D5BAF12B0F09D0BAF12D0F0ED103E0CC
:10846000584604B0BDE8F09F44F48064A9697F1CBD
:1084700001988847761E8246002E02DDBAF1300F41
:1084800003D0B9F1000F26D032E0A969761E44F47A
:1084900000747F1C019888478246002E05DDBAF1E2
:1084A000780F06D0BAF1580F03D0B9F1000F10D0F1
:1084B0001EE0B9F1000F02D0B9F1100F18D1A9696F
:1084C000761E24F400747F1C019888478246102091
:1084D00002E0082000E00A20814609E008FB0908C4
:1084E000A969761E44F400747F1C0198884782466F
:1084F000002E05DD4946504600F0C3FC0028EDDAA9
:10850000E96901988847A00502D46FF00100A8E747
:10851000E00725D1600613D5600502D5C8F100003B
:1085200000E0404629680A1D2A600968220501D535
:10853000087015E0220701D5088011E008600FE0FF
:108540002868011D29600068210502D580F8008097
:1085500006E0210702D5A0F8008001E0C0F8008005
:1085600038467EE72DE9FF5FD2E901A74FF000080A
:10857000916999461446DDF838B046460198884717
:10858000054659EA0B0005D009E0A169761C01985F
:1085900088470546216A284688470028F5D1681C87
:1085A00003D05FEACA7005D015E04FF0FF3004B089
:1085B000BDE8F09F2068011D2160D0F800800AE02E
:1085C0005FEACA7001D108F8015BA169761C7F1EC1
:1085D000019888470546002F1ADD681C18D0B9F1AC
:1085E000000F0DD0E81705EBD060421120F01F00FE
:1085F00059F822102A1A012090400142E0D107E0E8
:10860000BBF1000FDCD1216A284688470028D7D06B
:10861000E16901988847BBF1000F07D1002E05DD05
:108620005FEACA7002D1002188F80010A068B84241
:1086300003DDBBF1000F03D017B16FF00100B6E707
:108640003046B4E72DE9FF4F087883B09946FF28FC
:1086500005D0491C2D2804D00024002008E000206B
:108660000BE00124F9E700EB800003EB4000491C1C
:108670000B78FF2BF7D104B140420023029314780A
:1086800019461D462D2C01D02B2C04D1521C2D2C0B
:1086900013D000240294AA461478FF2C0FD00A2588
:1086A000A3FB057801FB05814FF0000C03FB0C11C7
:1086B000521CE3194AEB0101EEE70124EAE7814489
:1086C00053EA010002D019F5C87F06DA03980021A9
:1086D000C0E9001107B0BDE8F08F0025AE4E2F466F
:1086E000DFF8B882184600F05AFDCDE90001B9F173
:1086F000000002DAC9F1000400E004460023A74AA2
:108700001AEB030B42EB045A12E0E00707D02A46AB
:1087100033463846414600F025FA074688462A4641
:1087200033461046194600F01DFA05460E46641001
:10873000002CEAD1DDE90001B9F1000F5A46534699
:1087400006DA00F081FA3A46434600F07DFA05E089
:1087500000F008FA3A46434600F004FA029A0AB1D9
:1087600081F00041039AC2E90001B3E72DE9FF4F10
:108770001F468DB0D7E901464FF0FF382E20454601
:108780004FF000090B90B9696D1C0E988847396A43
:10879000824688470028F6D1BAF1FF3F0AD024F478
:1087A000D064002E11DDBAF12B0F08D0BAF12D0FD5
:1087B0000BD102E0404611B08DE744F48064B96902
:1087C0006D1C0E9888478246761E6946600501D565
:1087D0002D2000E02B208DF8000001F1010B0DF1A0
:1087E000200809E0B9696D1C0E98884782460F98E9
:1087F00044F40074761E0560002E02DDBAF1300FDD
:10880000F0D00B998A453ED144F0800406E00F99E0
:10881000681CA9F1010944F400740860B9696D1C71
:10882000761E0E98884782463028F0D02BE00B99B0
:108830008A4505D1200603D444F08004761E18E052
:10884000504606F092F908B30DF11301761E44F478
:1088500000748B4508D2AAF130000BF8010B2006FA
:1088600007D5A9F1010003E0200602D409F10100B7
:108870008146A00502D50F99681C0860B9696D1C76
:108880000E9888478246002ED1DC53E0002E51DD41
:10889000BAF1650F02D0BAF1450F4BD1A00549D509
:1088A000B9696D1C24F44074761E0E988847824680
:1088B000002E0CDD2B2804D0BAF12D0F07D144F483
:1088C0008074B9696D1C0E9888478246761EE00553
:1088D00001D52D2100E02B2108F8011BCDF82C80BB
:1088E00021E00DF12901761E44F4007488450CD274
:1088F000AAF1300010F0FF0088F8000002D10B99B7
:10890000884509D908F1010806E0E00501D52448A9
:1089100001E042F20F708146B9696D1C0E988847DC
:1089200082460F980560002E04DD504606F01DF9C2
:108930000028D6D1F9690E988847FF208BF80000EF
:1089400088F800000020069007904B466A4608A968
:1089500006A8FFF777FEA00502D46FF001002AE712
:1089600014F0240F0AD0E00714D1DDE906123868AC
:10897000031D3B600068C0E900120BE0DDE9060161
:1089800000F00EFA0146E00704D13868021D3A6093
:108990000068016028460EE7000014400000F03F28
:1089A000F1D8FFFF2DE9F05F93460F46804604465D
:1089B000002603F055FDD0F80090824614F8015BC4
:1089C0002DB100F051FA0068405DC007F6D12B2DA3
:1089D00002D02D2D1AD0641E0021CAF800105A466C
:1089E0003946204600F090FA014627B13868A04287
:1089F00001D1C7F80080DAF80000022809D0CAF8CF
:108A00000090700505D54842BDE8F09F46F48066A9
:108A1000E2E70846F8E72DE9FE4F804681EA0300C9
:108A2000C00F0C46009021F0004123F00045B8EB48
:108A30000200A94105D24046214690461C460B46FD
:108A4000024623F00040104347D0270DC7F30A0029
:108A5000C3F30A510290401A019040286BDAC3F325
:108A6000130040F4801B0098924620B10023D2EB03
:108A7000030A63EB0B0B01985946C0F140025046C4
:108A800000F0C0F906460D4650465946019A00F0DE
:108A9000D8F910EB08006141002487EA115284EAFA
:108AA000E7731A4340D0009A62B3019A012A4FEA51
:108AB000075215DC001B61EB02014FF0004202EA95
:108AC0000752CDE90042001C41F5801132462B4689
:108AD00000F0AFFA03B0BDE8F08F40462146F9E759
:108AE000001B61EB0201001C41F5801300185B4183
:108AF0002018A2F5001747EB030140EAD570B6191C
:108B00006D4111E06D084FEA360645EAC0754FEA3F
:108B10000752001B61EB0201001C41F5801149085E
:108B20004FEA30000019514132462B4603B0BDE8F0
:108B3000F04F00F06FBA0098012240000023D0EB04
:108B4000020263EBE073009821464FEAE074B8EB51
:108B5000000061EB0401E9E783F000435BE781F08B
:108B6000004158E72DE9FE4F81EA030404F0004478
:108B700021F0004100944FF0000B23F0004350EA35
:108B800001045ED052EA03045BD0C3F30A54C1F37C
:108B90000A552C44A4F2F3340194A0FB0254C1F30F
:108BA000130141F48011C3F3130343F4801301FB59
:108BB000024400FB034E840A970A44EA815447EAC0
:108BC0008357A4FB076802958D0A05FB07854FEACA
:108BD000932C04FB0C542705029D4FEA065847EAE4
:108BE0001637B5EB08056EEB070C870E920E47EAB9
:108BF000811742EA8312A7FB0201B6EB0B0164EB7B
:108C000000042B0D43EA0C335E1844EB1C50DA468B
:108C10005146E7FB0201C5F313044FEA0B3343EA65
:108C200014534FEA0432019C43EA0603A4F10C04F6
:108C30000294009CCDE900B400F0FBF903B0BDE85C
:108C4000F08F00200146F9E72DE9F04D81EA030499
:108C500004F0004B21F0004514464FF0000A23F0C9
:108C6000004150EA050220D054EA01021DD0C5F3AC
:108C70000A570246C5F31303C1F31300C1F30A56A2
:108C800040F4801543F48013A7EB0608101BD6466A
:108C900008F2FD3873EB050002D308F1010801E08A
:108CA00092185B41B8F1000F03DA00200146BDE8DD
:108CB000F08D00204FF48011064684460EE0171B0D
:108CC00073EB050705D3121B63EB050306434CEA60
:108CD000010C49084FEA300092185B4150EA010745
:108CE000EDD152EA030012D082EA040083EA0501C2
:108CF000084305D0101BAB4106D20122002306E039
:108D000000224FF0004302E06FF0010253101AEB13
:108D100006004CEB085110EB0A0041EB0B01BDE8DB
:108D2000F04D00F077B90EB5C10F80EAE07008444D
:108D3000CA07002140F233438DE80E000A460B4675
:108D400000F077F903B000BD00F0004230F00040C1
:108D50000AD0C10D01F56071C0F3160042EA01515D
:108D6000C2084007114370470020014670470000C9
:108D700030B5041E71F1000404DB4FF000444042A2
:108D800064EB0101141E73F1000405DB1C464FF077
:108D90000043524263EB04038B4208BF824230BD62
:108DA00001F0004330B421F0004150EA010206D046
:108DB0000A0DA2F56072C1F31301002A02DC30BC77
:108DC00000207047440F44EAC104C100E01830BCE1
:108DD00000EBC25000F0E7B830B50B46014600206A
:108DE0002022012409E021FA02F59D4205D303FA6D
:108DF00002F5491B04FA02F52844151EA2F10102EE
:108E0000F1DC30BD202A04DB203A00FA02F1002018
:108E100070479140C2F1200320FA03F319439040B8
:108E20007047202A04DB203A21FA02F00021704723
:108E300021FA02F3D040C2F12002914008431946C2
:108E40007047202A06DBCB17203A41FA02F043EAAA
:108E5000E07306E041FA02F3D040C2F120029140F3
:108E6000084319467047000000487047E49E010817
:108E700010B50446FFF7F8FF0068005D00F0010040
:108E800010BD3A2800D2303820F02002412A01D308
:108E9000A2F13700884201D34FF0FF307047000045
:108EA000026811441378016018467047D160044984
:108EB00051610449116200211161114600F0C0B9ED
:108EC000A18E0008718E0008426842B1016811F855
:108ED000013B23B1521EC0E9001218467047012120
:108EE000C160881E704742685AB1C368016843B9BF
:108EF00083688B4205D0491E521CC0E90012002035
:108F000070474FF0FF3070472DE9F05F82460078E0
:108F1000002715468B460AF10104B946302801D0D6
:108F20009DB113E014F8010B0127782803D05828CD
:108F300001D045B10AE00DB1102D07D10027102551
:108F400014F8010B02E0082500E00A250026B046CF
:108F50000EE005FB080005FB06F1012701EB1046BA
:108F60001FFA80F8B6F5803F00D3B94614F8010B1C
:108F70002946FFF786FF0028EBDABBF1000F05D08A
:108F80000FB1641E00E05446CBF80040B9F1000F69
:108F900006D003F065FA02210160C81EBDE8F09F0B
:108FA00048EA0640FAE70029A8BF7047401C49007C
:108FB00008BF20F00100704710B4B0FA80FC00FA3E
:108FC0000CF050EA010404BF10BC704749B1CCF169
:108FD000200421FA04F411FA0CF118BF01212143F5
:108FE0000843A3EB0C01CB1D4FEA00614FEA1020B0
:108FF00042BF002010BC704700EBC3501044002952
:10900000A4BF10BC7047401C490008BF20F00100FD
:1090100010BC704710B5141E73F1000408DA401C30
:1090200041F1000192185B411A4301D120F0010087
:1090300010BD2DE9F04D92469B4611B1B1FA81F277
:1090400002E0B0FA80F220329046FFF7DBFE0446E1
:109050000F4640EA0A0041EA0B0153465A460843CC
:1090600013D0114653EA010019D0C8F1400250460E
:10907000FFF7D7FE05460E46504659464246FFF7D3
:10908000C1FE084305D0012004E020463946BDE872
:10909000F08D0020054346EAE0762C4337430A98DA
:1090A0006305E40AA0EB08000022FD0A44EA4754E5
:1090B0000A3002D500200146E9E70105101969418F
:1090C000DDE9084500196941BDE8F04DA2E770B53A
:1090D00021F0004303430CD0C1F30A550024D5EB23
:1090E000040564EB0403D617AD1AB34102DB00207C
:1090F000014670BD201841EB025170BD2DE9F04DC5
:1091000000231A461B1A8A4103DB00200146BDE8F2
:10911000F08DC1F30A52C1F3130141F480154FF0F1
:10912000000BD10702D100186D41521E00270446E2
:1091300040F2FF11384601EB620A3E468046024685
:1091400000204FF48011FFF76CFEC2197141BB186B
:1091500046EB0100B4EB030C75EB000C04D3E41AEE
:1091600065EB000517460E46241908F101006D4114
:1091700080463428E3DDF91946EB0600091BA841B7
:1091800003D24FF0FF32134601E0002213461BEBDF
:10919000070046EB0A51BDE8F04DFFF73BBF0EB5A7
:1091A00040F2334202920022CDE900221346FFF73B
:1091B00040FF03B000BDC1F30A52C1F3130140F2F6
:1091C000FF3341F480119A4202DA002001467047D1
:1091D00040F233439A42A2F2334202DC5242FFF79A
:1091E00020BEFFF70FBE000030B5041E71F1000471
:1091F00004DB4FF00044404264EB0101141E73F1A4
:10920000000405DB1C464FF00043524263EB0403AD
:10921000994208BF904230BD00207047064C074D70
:1092200006E0E06840F0010394E807009847103436
:10923000AC42F6D3FEF79CFFDC9F01080CA00108AE
:109240002DE9F34F8BB04FF0000801F10C000C46F4
:109250004FF0010B46460DF1080A019062690121A9
:1092600001989047051E2DD0252D2CD0216A8847C6
:10927000C0B16269012101989047216A884700289E
:10928000F7D1411E62690198904700E0761CA16900
:109290000B988847216A88470028F7D1E1690B9825
:1092A0008847DBE7A1690B9888470746A84201D1A8
:1092B000761CD3E7E1690B9888477F1C02D1B8F18F
:1092C000000F6FD047E1002762693D46394601989B
:1092D00090472A2804D1626901210198904701250D
:1092E000DFF888926269012101989047A0F130016E
:1092F0000A290AD24F45E5DC07EB870100EB41075D
:10930000303FDFD445F01005ECE7E90601D46FF0FB
:1093100000476C280AD04C2814D0682815D06A2839
:109320000DD074281CD07A281AD01DE06269012162
:10933000019890476C2802D045F0040514E045F0F0
:1093400002050DE045F020050AE06269012101985F
:109350009047682802D045F0080505E045F400650F
:109360006269012101989047C4E9015765283DD001
:1093700019DC58287AD00CDC452837D004DC2528A5
:1093800026D0412831D131E046282FD047282CD192
:109390002CE05B2877D0612828D063287CD0642813
:1093A00023D15AE0D1E06F2848D008DC66281DD0D0
:1093B00067281BD0692821D06E2816D127E0702895
:1093C00045D0732868D0752847D078280DD14DE056
:1093D000A1690B988847054625283FF469AFE169E4
:1093E0000B9888476D1C3FF46AAFB4E023466A4689
:1093F0006FF001000B99FFF7B9F99FE045F04000CD
:109400006060A80723464FF0000236D43EE0E8072C
:109410007FF447AF2068011D21600068290501D550
:1094200006701BE7290701D5068017E7A90703D5B2
:10943000F117C0E9006111E706600FE745F0400051
:109440006060A80723464FF0080216D41EE040F6DD
:109450000E0125EA0100606016E045F04000606002
:10946000A80723464FF00A0207D40FE045F040005A
:109470006060A80708D5234610226FF001000B9901
:10948000AFF300805AE007E0234610226FF001009E
:109490000B99FEF7C1FF51E04FF000094F464B46D4
:1094A000632802D05B2807D041E02079C00601D4B0
:1094B0000120A06001273AE06269012101989047EC
:1094C0005E2805D14FF0010962694946019890472D
:1094D000216939B900210A46534643F82120491C25
:1094E0000829FADBB0B3216969B9C11700EBD16271
:1094F00053110AEB830122F01F02821A01200B682C
:10950000904003430B6062690121019890475D28F8
:10951000E8D1B9F1000F09D00020514651F82020C0
:10952000D24341F82020401C0828F7DB02AB22463A
:1095300000976FF001000B99FFF714F800280CDA80
:10954000401C08D1BBF1000F05D04FF0FF300DB02B
:10955000BDE8F08FFFE74046F9E7E90701D108F1E0
:10956000010806444FF0000B78E60000CCCCCC0C90
:1095700070B58C1810F8015B15F0070301D110F8D5
:10958000013B2A1106D110F8012B03E010F8016B02
:1095900001F8016B5B1EF9D12B0705D40023521E85
:1095A0000DD401F8013BFAE710F8013BCB1A921CED
:1095B00003E013F8015B01F8015B521EF9D5A142EB
:1095C000D8D3002070BD40F2810CC2F2000C60477D
:1095D00040F2310CC2F2000C604740F2C10CC2F202
:1095E000000C604740F2010CC2F2000C604740F2F0
:1095F000750CC2F2000C604740F2251CC2F2000C50
:109600006047000010B5086800221146401CFFF7B3
:10961000C9F904460B49A0F5166088420FD82146C7
:1096200009A002F0C7FE0B48416CA14205D044647A
:109630004FF4017120300FF02BFF002010BD0120EE
:1096400010BD0000207B1E00424155443D25640DA5
:109650000A00000090050020144810B5016888B089
:10966000C90601D5102101600168090701D508214B
:1096700001600068800716D006A90DF10B00CDE946
:109680000001012103AB05AA084600F067F8084C69
:109690000598ADF808000C2202A960680CF0A0FD46
:1096A000E0680DF063F908B010BD000010640040E0
:1096B0007C0500203EB5086802AB6A461EA1FEF795
:1096C0008FFE022801D001203EBD1DA168460DF08D
:1096D00050FD1C4C08B90298A0651BA168460DF00E
:1096E00048FD08B90298606518A168460DF041FD73
:1096F00010B9029884F84C0015A168460DF039FDA8
:1097000010B9029884F84D0012A168460DF031FDA1
:1097100010B9029884F84E000FA168460DF029FD9B
:1097200010B9029884F84F0006484FF401712030B8
:109730000FF0AEFE00203EBD3D2533732C256400A6
:10974000424155009005002043494400544D3000EB
:10975000544D3100544D3200544D3300F0B52F4E6E
:109760004FF4D87505EB011556F82040DDE905C723
:1097700054F805E064591EF0040F48D0E408146062
:1097800056F8202052594FF4DA7402F002023A706F
:1097900056F8202004EB0114125902F00F028CF845
:1097A000002056F820404FF4DC7202EB0112A4585E
:1097B0001C7056F82040A458240A5C7056F82040CB
:1097C000A458240C9C7056F82040A258120EDA704F
:1097D00056F820404FF4DE7202EB0112A4581C71BF
:1097E00056F82040A458240A5C7156F82040A4582A
:1097F000240C9C7156F82040A258120EDA7156F8CB
:10980000200031B1016941F020010161F0BD640D1A
:10981000B5E7C16841F02001C160F0BDBC97010807
:109820007CB5144801AB00F5F075026C22F0010222
:10983000026408686A4610A1FEF7D2FD012802D032
:10984000022807D013E0009855F820100CA002F071
:10985000B1FD0CE0002407E00098204455F82010EA
:1098600007A002F0A7FD641C01988442F4DB0020ED
:109870007CBD0000900500203D25642C256400007F
:109880003078253038580D0A000000001CB50D480E
:109890006B4600F5F074026C22F001020264086865
:1098A00001AA09A1FEF79CFD022803D1DDE9000110
:1098B00044F8210003484FF4017120300FF0E8FD17
:1098C00000201CBD900500203D25642C256400006F
:1098D00003200FF03FBC03200FF000BC01200FF06D
:1098E00039BC01200FF0FABB02200FF0F7BB0220B9
:1098F0000FF030BC012809D002280DD1074850F8DC
:10990000210001682AB141F0010104E00348403818
:10991000F5E721F00101016070470000149801088B
:1099200002460020012A06D0022A03D1034850F83B
:1099300021004068704701484038F8E71498010852
:109940000A494FF0FF32012808D0022805D14869A2
:1099500040F002004861064802607047486940F0E4
:109960000100486103484260704700000010024057
:10997000040402400000024070B515460C46012860
:109980000ED0022817D10C48005701F073FD0A4889
:10999000503050F82400016855B141F0020109E04F
:1099A0000548801D005701F065FD03481030F0E7C1
:1099B00021F00201016070BDC4970108012806D0A2
:1099C000022803D1034850F8210042607047014843
:1099D0004038F8E714980108012806D0022803D17E
:1099E000034850F82100C260704701484038F8E74A
:1099F0001498010801280BD0022808D1064850F815
:109A00002100016821F0800141EAC2110160704724
:109A100001484038F3E700001498010810B50B46E0
:109A2000044609780022FFF765FF43F6D071012C48
:109A300028D0022C25D11C7815489A6850F824406B
:109A4000A2601C781A6950F82440E2601C785A8899
:109A500050F8244062601A7850F8220002688A4365
:109A600099880C0244EA81211C7B41EAC4119C794B
:109A70005B7841EA841141EA0311114341F48051BA
:109A8000016010BD02481C7840389A68D6E7000093
:109A9000149801080548016841F08071016004488C
:109AA000016841F00101016070470000FCED00E039
:109AB000001000E002F0AEB810B5086800221146B0
:109AC000401CFEF76FFF06490028086C04D040F0E8
:109AD00001000864002010BD20F00100F9E700003B
:109AE0009005002070B5224D01206C5604F01F0631
:109AF00000FA06F66409A40004F1E024C4F8006149
:109B00006C5604F01F0500FA05F56409A40004F181
:109B1000E024C4F88052174C25688840054325602E
:109B2000144914390C680BB1044300E084430C6001
:109B300010490C394AB10C1D012A0DD0022A0AD154
:109B40000A688BB102430A6007E00A680BB102435E
:109B500000E082430A6070BD13B12168014301E057
:109B600021688143216070BD82430A60F8E70000EC
:109B70003C9801081404014010B50CF021F9044888
:109B80000021007809F02AFFBDE810400CF032B93E
:109B9000200E00202DE9F0410CF012F90A24094EA4
:109BA000094F0125306805FA04F1084203D0385DF9
:109BB000214609F013FF641C102CF3DBBDE8F041D3
:109BC0000CF018B914040140200E002010B50CF060
:109BD000F7F804480121407809F000FFBDE8104083
:109BE0000CF008B9200E002010B50CF0E9F804487C
:109BF0000421007909F0F2FEBDE810400CF0FAB83B
:109C0000200E00202DE9F0410CF0DAF80524094E71
:109C1000094F0125306805FA04F1084203D0385D88
:109C2000214609F0DBFE641C0A2CF3DBBDE8F041A1
:109C30000CF0E0B814040140200E002008B50E48D6
:109C400000220092016841F4803101604FF400432A
:109C500006E00099491C0091994201D9012008BDF4
:109C600001688903F5D5009200BF0098401C009060
:109C7000FF28F9D9002008BD001002402DE9F04F5F
:109C80000C462DED028B81B024200CF02BF982467E
:109C90000C200CF027F9814624200CF023F9804693
:109CA0000C200CF01FF93949054624220F46504676
:109CB0000CF090F935490C222431484600910CF003
:109CC00089F93249242240310E4640460CF082F98F
:109CD0002E490C2264318B4628460CF07BF908F0A3
:109CE000CBFB08F037FC2422514638460CF072F9C1
:109CF0000C22494600980CF06DF92422414630466A
:109D00000CF068F90C22294658460CF063F920A1A2
:109D100020680DF02EFAE0B91C48083807F070FEF4
:109D20001A48383007F06CFE1848783007F068FEA3
:109D30009FED198A03215846B0EE480A0FF075FBD3
:109D4000B0EE480A032100980FF06FFB134880ED36
:109D5000238A12484FF4017120300FF099FB5046CE
:109D60000BF022FA48460BF01FFA40460BF01CFAA3
:109D700028460BF019FA0021084601F049FC01B011
:109D80000020BDEC028BBDE8F08F0000BC06002077
:109D90003D5245534554000000000000900500204E
:109DA0002DE9F0432DED028B87B00E464BA002F05B
:109DB00001FB4CA130680DF0DCF99FED4C8A4C4F53
:109DC0004FF4017807F1200507F5A87407F592779D
:109DD000002849D004A803A9CDE9001002AB05AAC8
:109DE00044A13068FEF7FCFA414E042846D0B0EE9C
:109DF000480A032102A80FF018FBB0EE480A03211D
:109E000020460FF012FB002006F520794FF4FA6788
:109E100005900322494602A80FF016FA05200DF01E
:109E2000CBFB0598401C0590B842F2DBF0EE080A27
:109E30009FED340A214602A80FF0D2FA03212046F2
:109E40000FF0A4FA96ED560AF7EE000A30EE600A1B
:109E500086ED560A414628460FF01AFB07B000204F
:109E6000BDEC028BBDE8F083384607F0C9FDB0EECB
:109E7000480A032120460FF0D8FAEBE70599032999
:109E800013DA9DED020A0022384609F098FA9DED9A
:109E9000030A01223846059909F091FA9DED040A5A
:109EA00002223846059909F08AFA059803280BD151
:109EB0009DED020A86ED540A9DED030A86ED550AD2
:109EC0009DED040A86ED560A39460FA006F00EFDF8
:109ED000032221460CA006F057FDBBE74643413262
:109EE0000D0A00003D52455345540000000000009B
:109EF000900500203D25642C25662C25662C2566C2
:109F0000000000006F12033A6D61746C6162000022
:109F10002DE9F04F00242DED0A8BA3B00E46254607
:109F2000A346FEA00DF0D5FA08B10DF085FAFDA00C
:109F30000DF0CFFA08B10DF07FFA0DF0F9FB21908A
:109F40001FAAFAA13068FEF74BFA0321084609F070
:109F5000B5FA03211290084609F0B0FAF44E1190B8
:109F60000020A6F84E03D6ED21BAB0EE080A86ED21
:109F7000210A0321062009F0A1FA149004210620E9
:109F800009F09CFA13900321042009F097FA10902D
:109F90000421032009F092FA0F90B7EE000A022282
:109FA0000021149809F00BFABFEE000A02220121E9
:109FB000149809F004FAB7EE000A0122022114985D
:109FC00009F0FDF9BFEE000A01220321149809F0FF
:109FD000F6F9B7EE000A00220421149809F0EFF90F
:109FE000BFEE000A00220521149809F0E8F9D1A07B
:109FF0001F9902F0DFF94FF0FF373A4642F2107135
:10A00000052001F041FE0A200DF0D6FA3946052060
:10A0100001F016FF0021052001F01AFF06F08AFB6F
:10A0200006F076FB06F546701E90A0F5DA702090DB
:10A0300014381A902C3819906C30F7EE008ABFEE65
:10A0400000BA1890E043800647D047E1BAF84E03C3
:10A05000564608B906F06EFBB6F84E03092838D309
:10A0600096EDC90AB2461899F8EE400A1E9888EE95
:10A07000A00AF0EE080A0FF0B3F90021189A11981F
:10A080000DF041FF0121189A11980DF03CFF0221BB
:10A09000189A11980DF037FFDAF89801FEF754FE80
:10A0A00080468946DAF89401FEF74EFE06460F46D2
:10A0B000DAF89001FEF748FE8DE8C00341EC100B82
:10A0C0009FA053EC102BDAF8241302F073F945F03B
:10A0D00008050A200DF070FA01E0DFF854A2280705
:10A0E000B4D5BAF84E035746012801D9002600E03E
:10A0F00001265FEA0B0005D001280DD0BBF1020F4D
:10A10000A3D10DE006F016FB052001F0B5FD22906D
:10A11000002E9AD00120E0E0002E96D10220DCE053
:10A1200028067CD4052001F0A7FD2299401A00EEF4
:10A13000100AB8EE400ADFED8A0A15A91E98C0EE93
:10A1400020CA9DED1F0AB8EEC00A80EE2C8A97ED5A
:10A15000C90AF8EE400A88EEA00AF0EE080A0FF0ED
:10A160003FF900269FED7FABB0EEC8CA15AF07EBF5
:10A17000860090ED000AB0EEC00A10EE100AFEF75D
:10A18000E3FD41EC190B1CEE100AFEF7DDFD53EC6C
:10A19000192BFEF7E1FC53EC1A2BFEF7E9FD55D223
:10A1A0001CEE901A7148814250DD1CEE101A81425B
:10A1B0004CDD1CEE100A6E49884247DA07EB860038
:10A1C0006A4990ED000A38EE400AB0EEC00A10EE7F
:10A1D000100A884201DDB1EE488A1BA800EB860018
:10A1E00015AA80ED008A314612980DF08CFE179862
:10A1F000FEF7AAFD074688461698FEF7A5FDCDE9AD
:10A2000002011598FEF7A0FDCDE9000118EE100A35
:10A21000FEF79AFD81468A461CEE900A00E05BE05C
:10A22000FEF792FDCDE9067841EC100BDDE9020165
:10A23000CDE90401DDE90001CDE9009ACDE9020193
:10A2400053EC102B4BA002F0B5F803E0761CF6B2ED
:10A25000032E8CD326B1012E06D0022E09D10CE09C
:10A2600045F001054DA002E045F002054DA002F0C9
:10A27000A1F8E843000704D02EE045F004054BA008
:10A28000F5E74CA002F096F80321084609F016F90C
:10A2900006460321084609F011F907461BA906F0F6
:10A2A00000FBDDE911100EF05CF83046129908F061
:10A2B000BFFB31463846209A09F0E6F938460AF0E5
:10A2C00073FF30460AF070FF12980AF06DFF119884
:10A2D0000AF06AFF45F0800500208346144EB6F868
:10A2E0004E0308B906F014FAD6F8340340F2EC41F4
:10A2F000884212D3210610D400EE100AD6EDCA0A05
:10A30000B8EE400A80EE801A00EE100AB8EE400A5D
:10A310008DED081AD6EDCB0A54E09CE168736933E1
:10A320000000000063616E6F70656E003D25640083
:10A33000900500204643414C4C3A25640D0A00002C
:10A3400073616D706C653A25642C2077623A252E16
:10A35000346620252E346620252E34660D0A000032
:10A3600000401C4600000000000008400000404083
:10A370000000484374696D653A252E336620746881
:10A38000723A252E3266206163743A252E32662099
:10A39000252E326620252E32660D0A00475952209E
:10A3A000580D0A0047595220590D0A0047595220AA
:10A3B0005A0D0A00677972206D69732D616C6967A7
:10A3C0006E0D0A0080EE801A00EE100AB8EE400A08
:10A3D0008DED091AD6EDCC0A80EE801A8DED0A1AA1
:10A3E00006F096F9CDED0B8A9DED080ABB4FB0EE55
:10A3F000C00A10EE100AB8421FDA9DED090AB0EE4D
:10A40000C00A10EE100AB84217DA9DED0A0A30EEC3
:10A41000680AB0EEC00A10EE100AB8420DDAE00782
:10A420000BD144F0010408AA002113980DF080FD1F
:10A43000042208A9AAA006F0A7FA9DED080AB0EE2A
:10A44000C00A10EE100AB8421FDA9DED090AB0EEFC
:10A45000C00A10EE100AB84217DA9DED0A0A30EE73
:10A460004B0AB0EEC00A10EE100AB8420DDAA0078F
:10A470000BD444F0020408AA012113980DF058FDF2
:10A48000042208A997A006F07FFA9DED080AB0EE15
:10A49000C00A10EE100AB8421FDA9DED0A0AB0EEAB
:10A4A000C00A10EE100AB84217DA9DED090A30EE24
:10A4B000680AB0EEC00A10EE100AB8420DDA600762
:10A4C0000BD444F0040408AA022113980DF030FDC7
:10A4D000042208A984A006F057FA9DED080AB0EE00
:10A4E000C00A10EE100AB8421FDA9DED0A0AB0EE5B
:10A4F000C00A10EE100AB84217DA9DED090A30EED4
:10A500004B0AB0EEC00A10EE100AB8420DDA20076E
:10A510000BD444F0080408AA032113980DF008FD99
:10A52000042208A971A006F02FFA9DED090AB0EEE9
:10A53000C00A10EE100AB8421FDA9DED0A0AB0EE0A
:10A54000C00A10EE100AB84217DA9DED080A30EE84
:10A55000680AB0EEC00A10EE100AB8420DDAE00642
:10A560000BD444F0100408AA042113980DF0E0FC69
:10A57000042208A95EA006F007FA9DED090AB0EED4
:10A58000C00A10EE100AB8421FDA9DED0A0AB0EEBA
:10A59000C00A10EE100AB84217DA9DED080A30EE34
:10A5A0004B0AB0EEC00A10EE100AB8420DDAA0064F
:10A5B0000BD444F0200408AA052113980DF0B8FC30
:10A5C000042208A94BA006F0DFF9E043800642D13F
:10A5D000DDE91310109A08F07BFDDDE90F100EF095
:10A5E00005FD0CAA00210F9807F0B2FB0CAA002170
:10A5F00019980DF088FC0CAA01210F9807F0A8FB10
:10A600000CAA012119980DF07EFC0CAA02210F98CA
:10A6100007F09EFB0CAA022119980DF074FC03218F
:10A620001A9A0F9807F094FB03211A980EF080FEF7
:10A6300044F0800430A001F0BDFE31A0199906F06D
:10A6400055F903222EA01A9906F09EF906F072F829
:10A650000020A6F84E030A200CF0AEFF200622D5FB
:10A66000280620D524A001F0A5FE25A0199906F002
:10A670003DF9032222A01A9906F086F923A001F0E1
:10A6800099FE1FA0209906F031F903221CA0189909
:10A6900006F07AF91F484FF40171C0ED21BA20305D
:10A6A0000EF0F6FE07E00DF043F82199401A1A4922
:10A6B00088427FF6C7AC13980AF076FD14980AF02A
:10A6C00073FD10980AF070FD0F980AF06DFD23B02D
:10A6D0000020BDEC0A8BBDE8F08F0000CDCC4C3ED5
:10A6E0005A2B3A005A2D3A00592B3A00592D3A006C
:10A6F000582B3A00582D3A006163630D0A000000A0
:10A700006E6F686561646572000000006779720DA4
:10A710000A00000090050020005307002DE9F041D9
:10A720002DED028B86B0002005900C4608683DA1F7
:10A730000CF01FFD01003D484FF4017800F12006A8
:10A7400000F5C87500F5B27718D004A803A9CDE9C3
:10A75000001002AB05AA36A12068FDF741FE0428CF
:10A760001FD005AA36A12068FDF73AFE012832D095
:10A77000012006B0BDEC028BBDE8F081384607F041
:10A780003FF99FED308A03212846B0EE480A0EF0CB
:10A790004CFE2648B0EE480A03216C300EF045FE10
:10A7A0003AE09DED020A00223846059908F007FEBE
:10A7B0009DED030A01223846059908F000FE9DED43
:10A7C000040A02223846059908F0F9FD39461EA010
:10A7D00006F08CF820E01EA0059901F0EBFD05F0D5
:10A7E000A9FF05984FF47A7148430CF0E5FE0F4835
:10A7F000B7EE001A294690EDC90A00F54670F8EE4A
:10A80000400A81EE200AF0EE080A0EF0E9FD03226C
:10A8100029460DA006F0B8F8414630460EF038FE45
:10A820000020A6E73D524553455400009005002006
:10A830003D25642C25662C25662C2566000000002D
:10A840003D256400000000006D61746C61620000D1
:10A85000626567696E20464347322C2074696D65D6
:10A860003A25640D0A0000002DE9F0410F46086802
:10A8700086B02AA10CF07DFC2A4C4FF4017804F537
:10A88000E87604F1200504F5D27478B104A903A890
:10A89000CDE9000102AB05AA23A13868FDF7A0FDB0
:10A8A000042819D0012006B0BDE8F081204607F049
:10A8B000A7F8214620A006F019F89FED210A0321F0
:10A8C00030460EF0B2FD17489FED1E0A002180EDC4
:10A8D0002A0AC0F8A4101AE00599032908DA02AA86
:10A8E00020460DF025FB214613A005F0FFFF0EE0EA
:10A8F0000DD14FF0030202A930460EF0B8FC12A0B1
:10A9000001F058FD032202A913A006F03DF84146CC
:10A9100028460EF0BDFD0020C5E700003D5245531E
:10A9200045540000900500203D25642C25662C250B
:10A93000662C2566000000006D61746C6162000089
:10A94000000000000000C6426269617320736574F4
:10A9500020746F3A0D0A00006E6F6865616465725D
:10A960000000000070B505462D4B14460E46062D1E
:10A970000CD2DFE805F0030714180B1C986940F0AF
:10A98000040002E0986940F0080098610A2C44D263
:10A99000DFE804F0111F18432A4343432A3E986915
:10A9A00040F01000F1E7986940F02000EDE7986969
:10A9B00040F08000E9E700230122284601F090F8EA
:10A9C00000221EE000230222284601F089F801221D
:10A9D00005E000230222284601F082F800223146D9
:10A9E000284600F037F818E003230022284601F03B
:10A9F00077F8042C0AD000223146284600F02AF8C5
:10AA000001223146284600F04BF806E00122F3E728
:10AA100002230122284601F063F8284670BD000099
:10AA200000100240034A52F820008068C84000F03D
:10AA3000010070472C980108054A52F82020D2687E
:10AA4000CA40D20701D0002200E0012200F002B883
:10AA50002C98010801238B40034951F820000AB1CA
:10AA600003617047436170472C9801080A4A10B58A
:10AA7000936943F0010393618A0721F003040749B6
:10AA8000120F21440F238C6893409C438C608B6889
:10AA9000904003438B6010BD001002400000014055
:10AAA00030B512B10024022301E0012400230D4A35
:10AAB0000F2552F820008A00082909D34168203A5E
:10AAC000954043EA8403A94393400B43436030BD60
:10AAD0000168954043EA8403A94393400B43036014
:10AAE00030BD00002C980108012A00D00022FFF799
:10AAF000B1BF000070B50C460868FDF74CFC104D66
:10AB0000B0B1206800221146401CFDF74BFFFF2822
:10AB100013D855F8C01FC0B221F0FF010143084807
:10AB200029604FF4017120300EF0B2FC002070BD9E
:10AB300095F8C01003A001F03DFC012070BD00009D
:10AB40009005002025640D0A0000000030B5234C5C
:10AB5000012202216368C3F303135BB1082B04D005
:10AB6000092B04D00A2B05D103E0022202E00422C3
:10AB700000E008226368C3F30223082B0CD2DFE84D
:10AB800003F0040B0B0B0B06080A012104E004215F
:10AB900002E0082100E01021114B05281B681AD2A1
:10ABA000DFE800F00B03080D0F00B3FBF2F0B0FB81
:10ABB000F1F030BDB3FBF2F030BD184630BD0948AE
:10ABC00030BD206B800104D5606D800501D506483D
:10ABD00030BD064830BD002030BD000000100240EE
:10ABE00094010020001BB700006CDC0200127A0008
:10ABF0000249486A00224A62704700000010024081
:10AC00000549054B0A68091D083309681B68594046
:10AC1000C0E9002170470000E8F7FF1F08B5054BA9
:10AC20006946187801F0F0F90028F9D19DF8000084
:10AC300008BD0000D801002070B50C460868FDF77B
:10AC4000AAFB0C4D88B1206800221146401CFDF77C
:10AC5000A9FE296B814206D028634FF4017105F1EA
:10AC600020000EF015FC002070BD03A0296B01F040
:10AC7000A1FBF8E79005002025640D0A0000000004
:10AC80003EB5086802AB6A4669A1FDF7A9FB022838
:10AC900001D001203EBD012467A168460CF069FA8D
:10ACA000664D70B90298FEF74FF841EC100B64A0A6
:10ACB00053EC102B01F07EFB9DED020A002485ED84
:10ACC000210A64A168460CF054FAA0B99DED020A6D
:10ACD000D5F88000BDEEC00A20F00F0010EE101A6B
:10ACE00001F00F01084300F00F01C5F880005AA0E1
:10ACF00001F060FB00245BA168460CF03AFAA0B9B1
:10AD00009DED020AD5F88000BDEEC00A20F0F000EB
:10AD100010EE101A090740EA1160C0F30311C5F8DC
:10AD2000800051A001F046FB002452A168460CF0BF
:10AD300020FAB0B99DED020AD5F880004FF4706298
:10AD4000BDEEC00A20F4706010EE101A02EA012174
:10AD50000843C0F30321C5F8800047A001F02AFB97
:10AD6000002448A168460CF004FAB0B99DED020A2F
:10AD7000D5F880004FF6FF72BDEEC00A20F4704097
:10AD800010EE101A02EA01310843C0F30331C5F88E
:10AD900080003DA001F00EFB00243EA168460CF0AF
:10ADA000E8F970B90298FDF7CFFF41EC100B3AA01B
:10ADB00053EC102B01F0FEFA9DED020A002485ED04
:10ADC000230A39A168460CF0D4F970B90298FDF74E
:10ADD000BBFF41EC100B35A053EC102B01F0EAFA4D
:10ADE0009DED020A002485ED220A35A168460CF08B
:10ADF000C0F908B19CB118E00298FDF7A5FF41EC3D
:10AE0000100B30A053EC102B01F0D4FA9DED020A88
:10AE10000024BCEEC00A10EE100A85F87C0007483A
:10AE20004FF4017120300EF033FB20463EBD000090
:10AE30003D2533732C2566004249530090050020C0
:10AE40006779722062616973207468723A25660DB1
:10AE50000A000000415247004143435F52473A25F0
:10AE6000640D0A00475247004759525F52473A253E
:10AE7000640D0A00414257004143435F42573A255F
:10AE8000640D0A00474257004759525F42573A251E
:10AE9000640D0A00434F460074656D7020636F6651
:10AEA000203A25660D0A00004C4D46006779722055
:10AEB0006C6D66207468723A25660D0A0000000009
:10AEC00047434E0047434E3A25660D0A00000000F6
:10AED0003EB50D460868A7A1FDF764FAA64C28B157
:10AEE000A6A12868FDF75EFA00282DD1A4A10920AB
:10AEF000CDE9000100230122E521A4A001F05AFAC6
:10AF0000A9A001F057FA94F86000800701D5AFA21C
:10AF100000E0B0A2B1A1B3A001F04CFAB4A1B6A078
:10AF2000A26E01F047FAB7A1B7A0226B01F042FA76
:10AF3000D4E90A23B7A1B9A001F03CFAA06CBAA1E8
:10AF4000020CBBA001F036FABCA12868FDF72AFA72
:10AF5000002829D1B4F84A23BAA1B5A0803401F061
:10AF600029FABAA1BCA0D4F8C42201F023FA2078AF
:10AF7000BDA100F00F02A0A001F01CFA2078BCA136
:10AF8000C0F303129CA001F015FA2088BAA1C0F307
:10AF9000032299A001F00EFA34F88009B8A1C0F399
:10AFA000033295A001F006FAB7A12868FDF7FAF977
:10AFB000002836D1B649B7A005F098FCB449032261
:10AFC0002C31B6A005F0E0FC0322B749B7A005F08C
:10AFD000DBFCAF49B8A0403105F088FCAC49032246
:10AFE0006C31AEA005F0D0FC634903226C31B4A0F3
:10AFF00005F0CAFCA649B5A0803105F077FCA4494C
:10B000000322AC31A5A005F0BFFCD4F88C00FDF7FD
:10B010009BFE41EC100BAFA153EC102BAFA001F045
:10B02000C9F9B1A12868FDF7BDF9002853D154F83A
:10B03000302F74A170A001F0BDF968A16EA0A26BC1
:10B0400001F0B8F994F89020A9A16BA001F0B2F931
:10B05000A9A169A0626901F0ADF9A9A166A0A26ADF
:10B0600001F0A8F9A9A168A0626A01F0A3F9A07F84
:10B0700094F82020E17F8DE80700637F227FA5A15F
:10B08000A8A001F097F9606DFDF75EFE41EC100B92
:10B09000AAA153EC102BABA001F08CF9A06DFDF729
:10B0A00053FE41EC100BABA153EC102BA5A001F00B
:10B0B00081F994F84C20AAA14FA001F07BF9B4F8D3
:10B0C0001C23A9A14CA0303C01F074F97049A9A03F
:10B0D000403905F00BFCA9A12868FDF763F998B980
:10B0E0006422A8A144A001F065F90CF021FB4FF403
:10B0F0007A71B0FBF1F2A5A13FA001F05BF9A54A7E
:10B10000A5A155A001F056F9A6A12868FDF74AF9B6
:10B1100000282DD134F8A40FA4A1C0F3072236A033
:10B1200001F048F96068FDF70FFE41EC100BA1A19A
:10B1300053EC102BA1A001F03DF92278A2A1A5A00B
:10B1400001F038F9A068FDF7FFFD41EC100BA4A158
:10B1500053EC102B99A001F02DF9E068FDF7F4FDF8
:10B1600041EC100BA0A153EC102B94A001F022F99C
:10B1700000203EBD00000000900500203D4C000076
:10B180004D61792020342032303232000D0A484996
:10B1900025642025642E25642E2564206275696C43
:10B1A000642025730D0A000032303130202D20320A
:10B1B00030323120436F7079726967687420627928
:10B1C000204869504E55430D0A000000392041497E
:10B1D0005853000036204149585300004D4F444514
:10B1E0003A000000252D31367325730D0A0000004A
:10B1F0004F454D3A00000000252D31367325640D72
:10B200000A00000049443A00252D31367330782574
:10B21000580D0A00555549443A000000252D313695
:10B2200073255825580D0A004F44523A000000007B
:10B23000252D3136732564487A0D0A003D53454E5D
:10B24000534F5200677972206672710073656E7396
:10B250006F72207374730000252D3136733078259A
:10B260003038580D0A0000004143435F52473A000E
:10B270004759525F52473A004143435F42573A00B1
:10B280004759525F42573A003D43414C000000008D
:10B29000B40600204143430D0A0000006E6F68654C
:10B2A00061646572000000007C0800205243204168
:10B2B00043430D0A000000004759520D0A000000E8
:10B2C0005243204759520D0A000000004D41470DDE
:10B2D0000A00000067797220636F6600252D313601
:10B2E00073252E34660D0A003D55535200000000B0
:10B2F000475749443A000000424155443A00000093
:10B3000043414E5F424155443A00000043414E5F85
:10B3100049443A0043414E5F4556545F544D523ABA
:10B3200000000000252D31367325642C25642C2562
:10B33000642C25642C25640D0A00000047425F54EC
:10B3400048523A00252D31367325302E34660D0AC9
:10B35000000000004C4D465F5448523A0000000087
:10B3600047434E3A00000000494D555F434F4F524E
:10B37000443A0000555246520D0A00003D535953BD
:10B38000000000004F535F5449434B0054494D4562
:10B3900000000000008000085645435F41444452CD
:10B3A0003A0000003D4853490000000076616C6996
:10B3B000643A00006669746572723A00252D313670
:10B3C0007325660D0A00000062696E5F7374617414
:10B3D00075733A00252D313673256425250D0A0035
:10B3E000666C75783A000000696E636C696E617412
:10B3F000696F6E3A0000000010B50868002211461F
:10B40000401CFDF7CFFA0B4C012801D028B109E010
:10B4100009A000F0CFFF032003E00AA000F0CAFF5C
:10B420000120206603484FF4017120300EF030F8FF
:10B43000002010BD900500203920414958530D0AC5
:10B44000000000003620414958530D0A000000005A
:10B4500010B500F001F810BD05488168090605D552
:10B46000816841F40001816000F0F6BB7047000084
:10B470000010024000F01F020121914040098000AD
:10B4800000F1E020C0F800117047000010B5086816
:10B4900000221146401CFDF785FAB0F57A7F10D8DE
:10B4A000094A916CB0EB114F09D089B241EA0040D2
:10B4B00090644FF4017102F120000DF0E9FF0020CB
:10B4C00010BD012010BD00009005002070B504469D
:10B4D00000202B4B9FED2B0A0BE06288616800FB7C
:10B4E000020201EB82010A689A4201DA81ED000A48
:10B4F000401C21888142F0DC00253DE061886068C5
:10B5000005FB015100EB810090ED000A10EE100ADE
:10B51000B0F1804F2FDDB0EE001AC1EE000A10EE40
:10B52000900AFDF711FC41EC100B02F0E3FF51EC27
:10B53000100BFDF735FC00EE100A002018E06288C1
:10B54000616805FB020201EB8201D1ED000A60EEA9
:10B55000800AC1ED000A6288616800FB025201EBBB
:10B560008201401CD1ED000A60EE800AC1ED000AA4
:10B5700021888142E3DC6D1C2088A842BEDC70BDBE
:10B580006F12833A6F12833A10B5044A044601469B
:10B59000107800F08FFD204610BD0000D80100207B
:10B5A000704700007CB50868134D01AB6A4613A1D3
:10B5B000FCF716FFA5F1200101280A6C22F0010218
:10B5C0000A6402D0022807D013E0009855F8201032
:10B5D0000CA000F0EFFE0CE0002407E000982044EF
:10B5E00055F8201007A000F0E5FE641C0198844285
:10B5F000F4DB02207CBD0000B00500203D25642C5A
:10B60000256400003078253038580D0A000000000D
:10B6100010B504A000F0CEFE72B609F06DFE002059
:10B6200010BD00004F4B0D0A0000000010B502A035
:10B6300000F0C0FE002010BD626567696E2E2E2EE0
:10B640000D0A000070B504460068A2680121904709
:10B650002069A8B10CF066F805460CE00CF062F821
:10B66000411BE069814202D96FF0010070BD401CAE
:10B6700040080BF0DFFE2169206888470028EDD0E4
:10B68000204606F0FBFC002070BD00002DE9F047CD
:10B69000086886B03D21FCF774FE05002FA0DFF896
:10B6A000CCA00FC88DE80F00E9464FF0010813D079
:10B6B00068780D2810D00A280ED068B100273E46C1
:10B6C0002BA000F077FE04AA2EA1681CFCF788FED0
:10B6D000C0B2012814D024E026A000F06BFE0024A4
:10B6E0004E464546574605FA04F1B86C084203D069
:10B6F000315D25A000F05EFE641C102CF3DB28E019
:10B7000000249DF8100019F80410814205D108FAB0
:10B7100004F006431CA000F04DFE641C102CF0D376
:10B720007F1C2C21681CFCF72CFE050001D0102F7B
:10B73000C9DBDAF8480082B2B2420AD06FF30F00D8
:10B740003043CAF8480009484FF4017120300DF029
:10B750009FFE06B00020BDE8F08700009190A0B0E9
:10B76000C0D0D1F0629364C5D5D960B190050020F6
:10B770006E6577207061636B6574206974656D73A5
:10B780003A0D0A00255800005B3078253032585DAC
:10B790000D0A000030B5174889B004AC0DC884E824
:10B7A0000D00086808AB07AA13A1FCF719FE0446B0
:10B7B000022803D0012409B0204630BD9DED080ABF
:10B7C000DFED0F0A694604A820EE200A04F090FB82
:10B7D0000C4D079828B90422694628460DF047FD0C
:10B7E000002407980128E6D16946284608F0DBFBCB
:10B7F0000024E0E7149B01083D25642C2566000029
:10B8000035FA8E3CD00700202DE9F0431C4E05464A
:10B81000894656F8250085B09846818841F0030195
:10B820008180002401278DF800208DF80170ADF88B
:10B830000440ADF8024004948DF80C7056F82500D1
:10B840008DF806400C30029069464846FEF7E6F84F
:10B850008DF800808DF80140ADF80440ADF802404D
:10B8600004948DF80C7056F825008DF806400C30C5
:10B87000029069464846FEF7D1F805B0BDE8F0836E
:10B880004C98010870B504461C48012C02D0022CCB
:10B8900019D10CE0C26842F48052C260C26822F43E
:10B8A0008052C260826942F4805282610BE0026978
:10B8B00042F480420261026922F480420261C2695C
:10B8C00042F48042C2610E4D002055F824201080C1
:10B8D00055F8242007201082204600F013F855F870
:10B8E0002400018841F45171018055F824008188B9
:10B8F00021F004018180002070BD00000010024092
:10B900004C9801082DE9F04786B00D4606461422F2
:10B9100025496846FCF711FDDFF88C904FF00008D0
:10B92000A9F10C092F4659F82600018821F04001A1
:10B9300001804446EA460120FFF708F93AF814105E
:10B94000B0FBF1F0854206D3291AB94203D2471B56
:10B9500000D50F46A046641C0A2CECD359F82610DB
:10B960000A8822F038020A8059F826100B8808F05D
:10B97000070243EAC2020A8059F826108A8822F494
:10B9800080728A8059F826108B8808F0080243EAF2
:10B9900042128A8059F82600018841F04001018056
:10B9A00006B0BDE8F08700005898010830B50F4D8B
:10B9B00055F820301C8824F040041C8055F82040A5
:10B9C000238811B143F0010101E023F0010112B11C
:10B9D00041F0020101E021F00201218055F8200030
:10B9E000018841F04001018030BD00004C98010801
:10B9F0002DE9F05F1F4D04468B4655F82400DDE924
:10BA00000B760188DDF828809A46914621F04001A6
:10BA10000180002241465846FDF76CFF002239465E
:10BA20005846FDF767FF4A4641465846FDF7D4FFA2
:10BA3000524639465846FDF7CFFF324641465846F2
:10BA4000FDF7BCFF324639465846FDF7B7FF0122E5
:10BA500041465846FDF74EFF012239465846FDF74C
:10BA600049FF55F82400018841F040010180BDE8FC
:10BA7000F09F00004C980108014A51601060704727
:10BA8000C0010020144910B50A6842F001020A60A2
:10BA90000A689207FCD5032808D1086B40F00070B3
:10BAA0000863486D40F40070486500204A6822F041
:10BAB000030202434A604A6802F003028242FAD15A
:10BAC000064C30B1012803D10320FFF73FF8206076
:10BAD00010BD0420F9E7000000100240940100208E
:10BAE00030B51D4CA56945F00105A56106280CD2AD
:10BAF000DFE800F003071E220B26A56945F00405C8
:10BB000002E0A56945F00805A561144D0F2443EA3C
:10BB1000820255F82000082916D343688D00203D85
:10BB2000AC4089002039A3438A401A43426030BDAB
:10BB3000A56945F01005E7E7A56945F02005E3E7AD
:10BB4000A56945F08005DFE7036889008C40A343C1
:10BB50008A401A43026030BD001002402C98010850
:10BB600070B506460D460020FFF78CFF1F4C60683D
:10BB700043F6F071884340F410506060206820F074
:10BB80008070206060681A490840606060684FF407
:10BB9000003141EA06410843606026B3FEF74EF8E3
:10BBA00000281FD10320FEF7D1FF4008B5FBF0F0BD
:10BBB0006168104A52F82000014361600E488542D6
:10BBC00003D3606840F000406060206840F08070FF
:10BBD000206020688001FCD50220FFF753FF074852
:10BBE0000560002070BD0420DDE700000010024069
:10BBF000FFFFC01FF496010800A24A049401002030
:10BC000010B50AF0DDF80BF09BFDBDE810400AF01E
:10BC1000F1B8000000B54FF0E020042101616FF0A1
:10BC20007F4141610220FEF791FF064A0449B0FBC3
:10BC3000F2F04FF47A7208605043486000BD000093
:10BC4000AC01002040420F000248016841F470013D
:10BC50000160704788ED00E0BFF34F8F0448016832
:10BC6000044A01F4E06111430160BFF34F8FFEE726
:10BC70000CED00E00400FA05024951F82000406A8A
:10BC8000704700007498010870B5044615463348A3
:10BC90000A46062C29D2DFE804F02803101C485479
:10BCA000C16841F40061C160C16821F40061C160F4
:10BCB000816941F40061816117E0016941F001018E
:10BCC0000161016921F001010161C16941F00101D6
:10BCD0000AE0016941F002010161016921F00201FC
:10BCE0000161C16941F00201C161204600F0C2F862
:10BCF0001B4E4FF4806056F82410088011462046F1
:10BD000000F030F856F82400C56256F824100020E0
:10BD1000486256F82410088256F8241001208882C0
:10BD20002046BDE8704000F09BB8016941F0040175
:10BD30000161016921F004010161C16941F004015F
:10BD4000D2E7016941F008010161016921F00801B0
:10BD50000161C16941F00801C6E70000001002401E
:10BD60007498010870B50B4E05460C4601203160F1
:10BD7000FEF7ECFE4000B0FBF4F1491E3460B1F573
:10BD8000803F01D34FF6FF71034850F8250001852D
:10BD900070BD0000D40100207498010870B5274BD5
:10BDA00053F82040258A25F001052582A3F10804D7
:10BDB0000125245604F01F06B5406409A40004F1CF
:10BDC000E024C4F8005105290ED2DFE801F0030E8B
:10BDD00018222C0053F82000818912B141F0010192
:10BDE00001E021F00101818170BD53F820008189BB
:10BDF00012B141F00201F6E721F00201F3E753F836
:10BE00002000818912B141F00401ECE721F0040126
:10BE1000E9E753F82000818912B141F00801E2E717
:10BE200021F00801DFE753F82000818912B141F0C9
:10BE30001001D8E721F01001D5E70000749801083F
:10BE4000024A52F82000C16270470000749801084D
:10BE5000024A52F8200041627047000074980108BD
:10BE6000034951F82000018841F001010180704729
:10BE700074980108034951F82000018821F001015C
:10BE800001807047749801082DE9F0431C4801882F
:10BE900021F0100101808006426A0026466218489F
:10BEA00030300068DFF85C90DFF85C80C417B9F8C8
:10BEB0006433D9F860131B0443EA114309040818DA
:10BEC000D8F80C106341D8F814C0CF17441ABCF14D
:10BED000020F08DD151B00D5A51AB5F5FA6F02DDB6
:10BEE000881847EB0603C9E9D603012289F86823BD
:10BEF0000CF1010CC8F814C0C8F80C00BDE8F083C0
:10BF0000102C0140900500200805002006480188FB
:10BF100021F0010101800548F0E9D812491C42F1E5
:10BF20000002C0E900127047102C0140900500206B
:10BF30004FF08040018A21F001010182014808F0A0
:10BF4000C7BF0000200F00200548018821F0010133
:10BF50000180044801210170C0680AF007BD00009B
:10BF6000100400407C0500200348018821F00101F5
:10BF70000180024808F0ACBF10080040E80F002024
:10BF800010B50BF0E9FE002010BD04200DF068B8DC
:10BF900005200DF065B800000C4B10B553F82020BB
:10BFA000948924F400549481002953F820108A8A3B
:10BFB00002D042F0400201E022F040028A8253F8AF
:10BFC0002000818941F40051818110BD90980108C1
:10BFD0000C4B10B553F82020948924F4005494811C
:10BFE000002953F820108A8A02D042F0800201E032
:10BFF00022F080028A8253F82000818941F40051A6
:10C00000818110BD90980108054A52F820000288ED
:10C01000920603D580880870002070470120704781
:10C020009098010870B504001ED01C48012C02D065
:10C03000022C19D10CE0C26842F48042C260C2688E
:10C0400022F48042C260826942F4804282610BE045
:10C05000026942F400320261026922F40032026194
:10C06000C26942F40032C261204600F02FF80C4849
:10C0700042F20C0150F82420918150F824000188EC
:10C080000180084D287838B10748084904700848ED
:10C09000FFF7F2FC00202870002070BD0010024065
:10C0A00090980108C8010020D80100201DAC0008AC
:10C0B00089B50008044A52F82030998052F82000CF
:10C0C00001884906FCD57047909801082DE9F04198
:10C0D00004460D460120FEF739FD1E4E56F8242079
:10C0E0009189090400EBC00101EB001001D5690042
:10C0F00000E0A900B0FBF1F16425B1FBF5F003010C
:10C1000018096FF01807784301EB800091890F043C
:10C110004FF0320106D501EBC000B0FBF5F000F0A6
:10C12000070005E001EB0010B0FBF5F000F00F0098
:10C130009189184393894DF6F3752B40938156F8F6
:10C140002420108156F8240082890A438281BDE8A8
:10C15000F08100009098010830B5214B01241B5656
:10C1600003F01F05AC405B099B0003F1E023C3F81B
:10C1700000411B4B1B1D53F82040A58925F4005599
:10C18000A58179B1012902D0022921D115E053F806
:10C190002010002A8A8902D042F0200217E022F003
:10C1A000200214E053F82010002A8A8902D042F0BD
:10C1B00040020CE022F0400209E053F82010002A6F
:10C1C0008A8902D042F0100201E022F010028A8136
:10C1D00053F82000818941F400518181002030BD55
:10C1E0008C980108F0B50C46086887B038A10AF0B1
:10C1F000C0FF394D4FF4017705F12006E435C8B191
:10C2000005F12800011FCDE905100A1F131FCDE914
:10C2100003321038011F0A1F0092CDE90110131FCD
:10C22000083A2EA12068FCF7DBF8092806D0012087
:10C2300007B0F0BD284605F0E3FB3FE0264C0022A6
:10C24000114694ED3B0A284607F0B9F894ED3C0AF4
:10C2500001220021284607F0B2F894ED3D0A02229F
:10C260000021284607F0ABF894ED3E0A0022012198
:10C27000284607F0A4F8012294ED3F0A114628460B
:10C2800007F09DF894ED400A02220121284607F0AC
:10C2900096F894ED410A00220221284607F08FF813
:10C2A00094ED420A01220221284607F088F8022272
:10C2B00094ED430A1146284607F081F829460EA05E
:10C2C00004F014FB394630460DF0E2F80020AFE7E9
:10C2D0003D52455345540000900500203D25662CF5
:10C2E00025662C25662C25662C25662C25662C2596
:10C2F000662C25662C2566006D61746C61620000F9
:10C3000001200CF0ADBE02200CF0AABE03200CF000
:10C31000A7BE00000349086808600348C0680AF027
:10C3200025BB0000086400407C0500201CB508689F
:10C330001A4C6B4601AA1AA1FCF752F802280AD13E
:10C3400001980099112808D017A000F033F8DDE912
:10C35000000144F8210002201CBD05290CD006294B
:10C3600011D00E482038082913D00929F3D1016CC7
:10C3700021F001010164EEE70A200BF01DF972B60D
:10C3800008F0BAFFE7E74FF4017120460DF080F89E
:10C39000E1E7016C41F00101ECE70000B00500208D
:10C3A0003D25642C2564000076616C3A3078255870
:10C3B0000D0A00000FB4054B10B503A9044A0298FA
:10C3C00002F056FC10BC5DF814FB0000811C010853
:10C3D000CC0100207CB50C001D461646014601D05C
:10C3E000601E00E00020CDE90010064B6A46294699
:10C3F000304602F03DFC002C02D0009A0021117062
:10C400007CBD0000C9F4000803B401984100009805
:10C4100050EAC12018BF04204A0D18BF40F00100A7
:10C4200040F2FF72B2EB515F08BF40F002000128FA
:10C4300008BF052002B070474100080218BF042061
:10C440000A0E18BF40F001004FF07F4232EA0101AE
:10C4500008BF40F00200012808BF05207047000017
:10C46000004870478C05002070B5C1482DED020BC7
:10C470002DED0E8B82B0119D25F000449FEDBEDBAB
:10C480009FEDBFEB84423EDBA4F140511098A1F137
:10C490007F6108430FD0BC48844202DC28D1109849
:10C4A00030B39DED100B02B0BDEC0E8B02B0BDE8B9
:10C4B000704002F00DB99DED100B53EC1D2B51ECAB
:10C4C000100BFCF74FFB9DED100B41EC180B53ECE0
:10C4D0001E2B51EC100BFCF745FB53EC182BFCF713
:10C4E0009AFA41EC100B02B0BDEC0E8B02B070BD9D
:10C4F000012002F035FA02B0BDEC0E8B02B0BDE8AF
:10C50000704002F0F9B8A1489FEDA18B844256DA41
:10C510009DED100BB4F1795F0ADA51EC100BFFF7C7
:10C5200073FF042808BF02F007F99DED100BDAE74E
:10C5300053EC102B51EC100BFCF714FB41EC190BD6
:10C5400095480621B0EE490AF0EE690A784402F0F7
:10C550002BF853EC192B51EC100BFCF703FB41ECBF
:10C560001A0B8E48B0EE490AF0EE690A04217844AD
:10C5700002F01AF853EC192B51EC100BFCF7F2FAFD
:10C5800053EC182BFCF747FA41EC100B51EC1A0B4B
:10C5900053EC102BFCF758FBCDE900019DED000B8F
:10C5A00053EC102B9DED100B51EC100BFCF7DAFA4D
:10C5B0009DED101B53EC112BFCF72DFAD2E09DEDF5
:10C5C000100B51EC100B05F02FFA53EC182BFCF765
:10C5D000C6FA9FED730BCDE9000153EC102B9DEDD6
:10C5E000000B51EC100BFCF7BDFA41EC190B6E4837
:10C5F0000621B0EE490AF0EE690A784401F0D4FF52
:10C6000053EC192B51EC100BFCF7ACFA41EC1B0B63
:10C610006648B0EE490AF0EE690A0421784401F058
:10C62000C3FF53EC192B51EC100BFCF79BFA53ECA6
:10C63000182BFCF7F0F941EC1C0B51EC190B0BF02B
:10C6400059FE41EC180B5A489FED5BABA04222DC2F
:10C6500053EC1C2B51EC1B0BFCF7F6FACDE9000157
:10C660009DED000B51EC180B53EC102BFCF77AFAF4
:10C6700053EC182BFCF7CFF953EC1A2BFCF772FA9A
:10C6800053EC1D2BFCF768FA53EC1E2BFCF767FAF2
:10C6900041EC100B5FE08DED008B002000909DEDD4
:10C6A000000B51EC180B53EC102BFCF7B4F99DED7B
:10C6B000000B41EC1E0B53EC102B51EC100BFCF754
:10C6C00051FA53EC192BFCF74AFA53EC1E2BFCF7EA
:10C6D000BBFA41EC190B53EC1C2B51EC1B0BFCF778
:10C6E000B3FA41EC1B0B53EC1A2B51EC190BFCF772
:10C6F00039FA53EC1D2BFCF732FA41EC190B53ECD1
:10C700001A2B51EC180BFCF72DFA53EC1B2BFCF7F2
:10C7100029FA53EC192BFCF71FFA9DED000B41ECA5
:10C72000180B53EC1A2B51EC100BFCF71BFA9FED76
:10C73000249B53EC192BFCF712FA41EC100B51EC33
:10C74000180B53EC102BFCF707FA53EC192BFCF7E2
:10C7500006FA41EC100B002D3FF7C5AE51EC100B63
:10C7600081F0004141EC100BBDE60000000000002C
:10C770000000F03F00000000075C143326A6913C47
:10C78000182D4454FB21F93F0000F07F0000E03FEA
:10C79000000000000000F03F38D6000046D6000040
:10C7A000000000000000E03F8AD5000098D500009E
:10C7B0003333EF3F000000000000000000000040A5
:10C7C000182D4454FB21E93F70B59B482DED020B19
:10C7D0002DED068B079D25F00044A04218DC9748FC
:10C7E000844202DC0AD1069840B19DED060BBDECF7
:10C7F000068B02B0BDE8704001F06ABF002DCCBFCF
:10C800009FED8F0B9FED900BBDEC068B02B070BDC2
:10C810008F48A04215DD8F48A042D8BF4FF0FF34AB
:10C8200058DD9DED060B51EC100BFFF7EDFD0428D4
:10C8300008BF01F081FF9DED060BBDEC068B02B039
:10C8400070BD9DED060B51EC100B05F0EDF8CDE938
:10C85000060181489FED828BA0423CDD8248A042C8
:10C860001FDD00249FED82AB9DED060B53EC1A2BD0
:10C8700051EC100BFCF7CFF89DED060B41EC190BBA
:10C8800053EC1A2B51EC100BFCF76CF953EC182BF2
:10C89000FCF762F953EC192BFCF7D6F9CDE9060148
:10C8A00049E09DED060B012453EC182B51EC100BC5
:10C8B000FCF7B1F89DED060B41EC190B53EC182B6E
:10C8C00051EC100BFCF748F953EC192BFCF7BCF9B1
:10C8D000CDE906012FE06848A0421FDD02249FED4C
:10C8E000689B9DED060B53EC192B51EC100BFCF7DC
:10C8F00039F953EC182BFCF78EF89DED060B41EC43
:10C90000180B53EC192B51EC100BFCF725F953ECD9
:10C91000182BFCF799F9CDE906010CE09DED060B0B
:10C92000032453EC102B9FED580B51EC100BFCF72C
:10C930008BF9CDE906019DED060B53EC102B51EC64
:10C94000100BFCF70FF941EC180B53EC182BFCF70C
:10C9500009F941EC190B4E480621B0EE490AF0EEF8
:10C96000690A784401F020FE53EC182B51EC100BAF
:10C97000FCF7F8F841EC180B4648B0EE490AF0EE27
:10C98000690A0521784401F00FFE53EC192B51EC94
:10C99000100BFCF7E7F841EC100B51EC180B53ECC3
:10C9A000102B002C0EDAFCF736F89DED061B53EC2D
:10C9B000112BFCF7D7F89DED061B53EC112BFCF760
:10C9C000CEF835E0FCF727F89DED061B53EC112B54
:10C9D000FCF7C8F841EC100B2F48784400EBC4007A
:10C9E00090ED001B51EC100B53EC112BFCF7B4F83D
:10C9F0009DED061B53EC112BFCF7AEF841EC100B30
:10CA00002648784400EBC40090ED001B51EC100B5D
:10CA100053EC112BFCF7A3F841EC100B002DA2BF37
:10CA2000BDEC068B02B070BD51EC100B81F00041E3
:10CA300041EC100B01E70000000010440000F07F03
:10CA4000182D4454FB21F93F182D4454FB21F9BF04
:10CA50000000DC3F0000203E0000F33F000000002B
:10CA6000000000000000F03F0000E63F0000000072
:10CA700000000000000000400080034000000000B3
:10CA8000000000000000F83F000000000000F0BFC0
:10CA9000DAD2000090D200001AD20000D2D10000F9
:10CAA00070B56F4E2DED040B2DED048B82B0DDF8CB
:10CAB00024C0DDE907235C422CF000411C4341EA1D
:10CAC000D474069D22F00040B44205D86C422C4339
:10CAD00040EAD474B4420BD99DED081B9DED060BC2
:10CAE00002B0BDEC048B04B0BDE8704001F0FABDAB
:10CAF000ACF14054A4F17F641C430BD0022404EA3F
:10CB0000AC7444EAD27405439FED578B9FED582BCC
:10CB100007D015E09DED060B51EC100B02F06CFFF9
:10CB200042E0002C11BF012C9DED060B02B0BDECC4
:10CB3000048B04BF04B070BD022C38D0032C3BD052
:10CB40000B439FED4D1B9FED4E0B0AD0B14218D108
:10CB5000B04209D121F0804120F080400991079036
:10CB60000FE0002A15DA10E0474B7B44002C08BF89
:10CB700093ED000B0DD0012C10D0022C17D0032CFC
:10CB80001AD0B0421DD1002A03DAB0EE410AF0EE0D
:10CB9000610A02B0BDEC048B04B070BD93ED000BD4
:10CBA00051EC100B81F0004141EC100BF1E7B0EEBD
:10CBB000480AF0EE680AECE7B0EE420AF0EE620ACC
:10CBC000E7E7401A00159FED329B3C28C8BF8DED6A
:10CBD000000B17DCBCF1000FBCBF10F13C0F8DED5A
:10CBE000009B0FDB9DED080B53EC102B9DED060B0E
:10CBF00051EC100BFCF728F804F016FF02F0FCFED5
:10CC0000CDE90001B4B1012C10D0022C9FED220B14
:10CC100053EC102B9DED000B51EC100B19D0FBF7D2
:10CC20009BFF53EC182BFBF797FFBDE7019880F0B3
:10CC3000004001909DED000B53EC192B51EC100BB3
:10CC4000FCF796F804BF022001F08AFE9DED000B70
:10CC50009FE7FBF781FF53EC182BFBF780FFA3E75F
:10CC60000000F07F00000000182D4454FB21094013
:10CC7000182D4454FB2109C0182D4454FB21F9BF41
:10CC8000182D4454FB21F93FCAD2000000000000D7
:10CC90000000000000000000075C143326A6A13C41
:10CCA00070B54FF068422DED048BF0EE408A18EE1F
:10CCB000900AB0EE608A18EE101A02EB4003B3F14E
:10CCC000654F3CBF02EB4102B2F1654F7DD200BF20
:10CCD000C0F3C753C1F3C7529A1A1B2A09DD10F0DB
:10CCE000004F14BF9FED830A9FED830ABDEC048BB8
:10CCF00070BD12F11A0F36DA11F0004F09D010F0A2
:10CD0000004F0CBF9FED7D0A9FED7D0ABDEC048BAB
:10CD100070BD88EE889A19EE100AFFF78DFB042883
:10CD200008BF01F039FD18EE900AFFF785FB0546B4
:10CD300018EE100AFFF780FB044619EE100AFFF701
:10CD40007BFB042D18BF052D08D1042C18BF052C22
:10CD500004D1002804BF022001F002FEB0EE490A0F
:10CD6000BDEC048B70BD4200B2EB410F3AD910F01C
:10CD7000004F19BFDFED630A9FED630ADFED630A21
:10CD80009FED630AB0EE481A0A46B1EE688A80F059
:10CD90000041F0EE418A10460A1A5200B2F1807F3B
:10CDA00034D2484010F0004FDFED5A1A9FED5A2A56
:10CDB0001DBFBEEE001A70EEE10A30EE420AB6EE7A
:10CDC000001A08BF70EEA10A00E040E008BF30EE94
:10CDD000020AB0EE682A01EE482A08EE818AC2EE05
:10CDE000081A15E011F0004F04BF9FED4C0AF0EE59
:10CDF000400AD1D010F0004F19BFDFED490A9FED76
:10CE0000490ADFED490A9FED490AC5E7C8EE881ACD
:10CE100021EEA11A9FED462ADFED462A41EE022AB5
:10CE20009FED452A01EE222ADFED442A41EE022A37
:10CE30009FED432ABDEC048B01EE222A21EE811ADC
:10CE400001EE020A30EE210A30EE200A70BD4FF0EA
:10CE50007F42B2EB400F28BFB2EB410F09D2F0EE98
:10CE6000480AB0EE680ABDEC048BBDE8704001F0E2
:10CE700080BC40EA01035B0008BF41F0FF410BD0DA
:10CE8000B2EB400F08BFB2EB410F08D120F0804059
:10CE900008EE900A21F0804108EE101A18E7B2EB74
:10CEA000400F12BF5FEA410340F0FF4001F0004134
:10CEB0003FF40EAFB2EB410F12BF5FEA400200F049
:10CEC000004041F0FF413FF403AF4A0092EA4003C3
:10CED0003FF5FEAE002AACBF9FED1A0A9FED1A0A7D
:10CEE00068EE808A28EE008A18EE900A18EE101A72
:10CEF000EEE60000DB0FC9BFDB0FC93FDB0F494087
:10CF0000DB0F49C00000C9BF22AAFDB90000C93F1C
:10CF100022AAFD390060ED3EC30ACE3700000000B2
:10CF2000000049C022AA7DBA0000494022AA7D3AE9
:10CF30002DAD65BD8FB8D53D0FB511BE61C84C3E56
:10CF4000A8AAAABE0000804F0000802F10EE101A81
:10CF500008B5444A6846B2EB410F28D94FF0E64085
:10CF6000B0EB410F94BF00204FF0FF3000900098CD
:10CF7000002861DB60EE000A10F0010F45D010F0D0
:10CF8000020FDFED391A9FED391A00EEE11ADFEDDD
:10CF9000381A40EE811A21EEA01AF0EE400A40EE57
:10CFA000010A08BFF1EE600AB0EE600A08BD314B1D
:10CFB00021F0004293423CD911F0004FDFED2E0AE0
:10CFC00020EE201ADFED2D0A19BF31EE601A71EE46
:10CFD000200A31EE201A71EE600ABDEEE01A11EE61
:10CFE000100A9FED271A00F0030000EEC10A9FED22
:10CFF000251A009000EEC10A9FED231A00EEC10A27
:10D000009FED221A00EEC10AB1E79FED211A9FEDB4
:10D01000210A10F0020F00EE810A9FED1F1A00EEA8
:10D02000801AB7EE000A00EE810A18BFB1EE400A7E
:10D0300008BD01F0B9FB9AE710EE100A4000B0F10C
:10D040007F4F3CBFB7EE000A08BD07D14FF001008B
:10D0500001F086FCBDE8084001F08EBBBDE8084049
:10D0600001F084BBB61F927E336D4C39DA82083CE6
:10D07000A0AA2ABE490E494683F9223F0000004B70
:10D080000000C93F00A0FD390020A2331A61342CF2
:10D09000B93AB2BACA9F2A3DDDFFFFBE2DED020BA1
:10D0A000019820F0004001909DED000B02B0704708
:10D0B0002DE9F04D2DED040B2DED0E8B96B0DDE935
:10D0C0002550279CDDF890A025F0004624F000486C
:10D0D000BAF1000F14BF0121002101EB4502FC4908
:10D0E00053184A1093422AD3002814BF0123002367
:10D0F00003EB44030B44F7498B4220D358EA000169
:10D100009FEDF59B76D0DFF8D8B35D4503D1BAF13A
:10D11000000F05D188E0BAF1000F08BF002100D050
:10D12000012101EB450111F5001F08D8002814BFAB
:10D130000121002101EB440111F5001F0BD99DEDE8
:10D14000261B9DED240B16B0BDEC0E8B04B0BDE884
:10D15000F04D01F0C7BA0027002DBCBFE14988455A
:10D1600021DAE1498845A8BF02271CDAC3451ADC49
:10D17000DE4901EB2851142908DDC1F1340220FAFF
:10D1800002F101FA02F282420DD108E058B9C1F170
:10D19000140228FA02F101FA02F2424503D101F029
:10D1A0000101C1F1020756EA0A0124D1002C22DA5A
:10D1B000002D18BF022F01D0012F0AD0022001F04C
:10D1C000CFFB16B0BDEC0E8B04B0BDE8F04D01F006
:10D1D00067BA022001F0C4FB01F062FA51EC100BB7
:10D1E00081F0004141EC100B16B0BDEC0E8B04B089
:10D1F000BDE8F08D18E09FEDBEAB9FEDBF8B002822
:10D2000071D1B848804522D105F1804010F58010D9
:10D2100008BFBAF1000F07D0B3450ADC002CA8BF45
:10D220009DED260BE0DA0DE0B0EE490AF0EE690A5A
:10D23000DAE7002C06DA9DED260B51EC100B81F09D
:10D2400000416FE0AE48784490ED000BCCE7D84544
:10D250004DD1002C48DA2EB186423AD1BAF1000FF6
:10D2600042D126E0BAF1000F13D0022001F078FB82
:10D2700001F052FA8DED020B9DED240B8DED000BAC
:10D2800010EE900A039961F31E0003909DED020BCE
:10D29000AAE78DED02AB9DED240B1AEE901A10EE6D
:10D2A000900A8DED000B61F31E0003909DED020BC3
:10D2B0009AE78DED028B9DED240B18EE901A10EE7F
:10D2C000900A8DED000B61F31E0003909DED020BA3
:10D2D0008AE709DA9DED240B51EC190B53EC102B66
:10D2E000FBF7B2FC1EE020E09DED240B7CE78642BC
:10D2F0001BDAB4F1804F0DD0A4F10050B0F1FF5013
:10D3000013D1002D11DB9DED240B51EC100B0AF015
:10D31000F1FF07E09DED240B53EC102B51EC100BAB
:10D3200000F0C2BC41EC100B5EE79DED240B51EC0C
:10D33000100B04F079FBBAF1000FCDE90E0142D1D8
:10D340009FED710B46B3A6F1E040B0F17F600CD0C9
:10D350005E4538D1002D00DAA7B3022F0CBF0120A3
:10D360004FF0FF30FBF7DFFCDCE7002D01DD002C88
:10D370000DDA002D01DD002C1FDB002D16DA002C4C
:10D3800014DB012F08BF9FED620B3FF42DAFB0EE11
:10D390004A0AF0EE6A0A27E7022F18BF002D0CD0C8
:10D3A000012F0AD1002DFFF61FAF06E0002DB8BFF8
:10D3B000002C08DA012F3FF417AFB0EE480AF0EE68
:10D3C000680A11E71BE0012000EBE57050EA070155
:10D3D00015D0791EB0EE498AF0EE698A084308BF7D
:10D3E0009FED4D8B4E480025804570DD4D494E48E0
:10D3F000884514DDB0420DDB002C19DB2FE0012045
:10D4000001F0AEFA16B0BDEC0E8B04B0BDE8F04DE5
:10D4100001F072B9B34502DC002C09DC1FE0864242
:10D4200002DA002C1BDA03E05E452BDD002C16DD52
:10D43000022001F095FA01F06FF98DED020B53EC2B
:10D440001A2B51EC180BFBF78DFBCDE9000103996A
:10D45000019861F31E0003909DED020BC4E60220CB
:10D4600001F07EFA01F068F910EE901A18EE900AB9
:10D470008DED020B8DED008B61F31E0003909DED91
:10D48000020BB1E69DED0E0B53EC192B51EC100B7A
:10D49000FBF762FB9FED260BCDE9080153EC102B47
:10D4A0009DED080B51EC100BFBF75CFB9FED221B75
:10D4B00053EC112BFBF753FB9DED081B53EC112B89
:10D4C000FBF750FB9FED1E1B53EC112B3CE08CE057
:10D4D000FFFF1F00FFFF0F00000000000000F03FF3
:10D4E0000000F03F0000F07F0000404301FCFFFF20
:10D4F000000000000000F07F0000000000000000BD
:10D50000EECB0000000000000000000000000080E2
:10D51000000000000000F0FF000000000000F0BF6D
:10D520000000E0410000F043FFFFEF3F000000007B
:10D53000000000000000D03F555555555555D53FCA
:10D54000000000000000E03FFBF709FB9DED080B29
:10D5500041EC1A0B53EC102B51EC100BFBF702FBB8
:10D5600053EC1A2BFBF7FEFA41EC1A0B9FEDFE0B66
:10D5700053EC102B9DED080B51EC100BFBF7F2FA5E
:10D5800041EC1B0B9FEDFA0B51EC1A0B53EC102BDB
:10D59000FBF7E8FA41EC1A0B9FEDF70B53EC102B5D
:10D5A0009DED080B51EC100BFBF7DCFA53EC1A2B3A
:10D5B000FBF7D2FA41EC1A0B51EC1B0B53EC1A2B74
:10D5C000FBF729FA0690CDE906519DED060B53ECC9
:10D5D0001B2B51EC100BFBF7BFFA53EC1A2BFBF78C
:10D5E000BEFA41EC100B00F0A1B90020B6F5801F87
:10D5F0000EDA9FEDE30B53EC102B9DED0E0B51EC6F
:10D60000100BFBF7AFFACDE90E016FF034000E46B8
:10D6100000EB2650A0F2FF37C6F31300DA4940F0C2
:10D620007F6646F040568842D8BF002408DDD749BF
:10D630008142C8BF012403DC0024A6F580167F1CAC
:10D64000D348784400EBC4000F9690ED00CB9DEDDD
:10D650000E0B53EC1C2B51EC100BFBF77DFA9DEDE0
:10D660000E0B41EC1B0B53EC1C2B51EC100BFBF77E
:10D67000D2F941EC100B51EC190B53EC102BFBF7CA
:10D68000E3FA41EC1D0B51EC1B0B53EC1D2BFBF78C
:10D6900069FA41EC1A0BBF488DED10AB7844109538
:10D6A00090ED000B4FF0005040EA660000EB844024
:10D6B0008DED080B00F5002009909DED080B53EC53
:10D6C0001C2B51EC100BFBF747FA9DED0E1B53EC96
:10D6D000112BFBF744FA41EC100B53EC102B9DED92
:10D6E000100B51EC100BFBF73DFA9DED080B41ECD4
:10D6F0001C0B53EC102B9DED100B51EC100BFBF79A
:10D7000031FA53EC1B2BFBF72AFA53EC1C2BFBF7DB
:10D7100023FA53EC1D2BFBF725FA41EC1C0B53ECC1
:10D720001A2B51EC1A0BFBF71DFA41EC1B0B9A4814
:10D730000621B0EE4B0AF0EE6B0A784400F034FF9D
:10D74000B0EE401AF0EE601AB0EE41DAF0EE61DAB7
:10D7500053EC1B2B51EC1B0BFBF704FA53EC1D2B6A
:10D76000FBF700FA9DED100B41EC1B0B53EC1A2B51
:10D7700051EC100BFBF74FF953EC1C2BFBF7F2F9B4
:10D7800053EC1B2BFBF747F99DED100B41EC1B0BEA
:10D7900053EC102B51EC100BFBF7E4F941EC1D0B93
:10D7A0009FED7FEB53EC1E2BFBF735F953EC1B2B56
:10D7B000FBF731F90890CDE908519DED080B53ECCA
:10D7C0001E2B51EC100BFBF7C7F953EC1D2BFBF78D
:10D7D000C3F953EC1B2BFBF7C2F99DED080B41EC91
:10D7E0001D0B53EC102B9DED100B51EC100BFBF7A8
:10D7F000B9F941EC1B0B53EC1A2B51EC1D0BFBF749
:10D80000B1F99DED080B41EC1A0B53EC102B51ECC8
:10D810001C0BFBF7A7F953EC1A2BFBF7FCF841ECB8
:10D820001A0B51EC1B0B53EC1A2BFBF7F4F80C9072
:10D83000CDE90C519DED0C0B53EC1B2B51EC100B57
:10D84000FBF78AF953EC1A2BFBF789F941EC1B0B18
:10D850009FED550B53EC102B9DED0C0B51EC100B69
:10D86000FBF780F941EC1A0B9FED510B51EC1B0BB0
:10D8700053EC102BFBF776F941EC1B0B9FED4E0B95
:10D8800053EC102B9DED0C0B51EC100BFBF76AF9D0
:10D8900053EC1B2BFBF7BFF841EC100B48487844C6
:10D8A00000EBC40090ED001B51EC100B53EC112B5E
:10D8B000FBF7B1F841EC1B0B3846FBF734FACDE926
:10D8C000080153EC1B2B51EC1A0BFBF7A4F841ECAD
:10D8D000100B3C48784400EBC40090ED00CB51ECB9
:10D8E000100B53EC1C2BFBF796F89DED081B53EC2B
:10D8F000112BFBF790F80690CDE906519DED080B32
:10D9000053EC102B9DED060B51EC100BFBF724F99B
:10D9100053EC1C2BFBF720F953EC1A2BFBF71CF9EB
:10D9200053EC1B2BFBF71BF941EC100B9DED261B59
:10D9300053EC102B8DED001B00959DED260B51EC4B
:10D94000100BFBF70FF99DED000B41EC1A0B53EC9C
:10D95000102B9DED260B51EC100BFBF7FDF89DED08
:10D96000061B53EC112B2FE0000000604715F73F1A
:10D97000FE822B654715F73F44DF5DF80BAE543E42
:10D9800000000000000040438E9803007AB60B00B0
:10D990002AC6000098C7000062C500000000000011
:10D9A0000000000000000840000000E009C7EE3F52
:10D9B000FD033ADC09C7EE3FF5015B14E02F3EBEE4
:10D9C000EEC30000A8C30000FBF7CCF853EC1A2B01
:10D9D000FBF721F89DED060B41EC1A0B53EC102BD5
:10D9E0009DED000B51EC100BFBF7BCF8CDE90C01E1
:10D9F0009DED0C0B51EC1A0B53EC102BFBF70BF8B5
:10DA0000CDE902010C46AA498C422FDB611A08437A
:10DA100018D19DED0C0B53EC102B9DED020B51EC2E
:10DA2000100BFBF799F841EC1B0B9FEDA30B51EC8E
:10DA30001A0B53EC102BFAF7EEFF53EC1B2BFBF7F2
:10DA4000D3FB2DD2022000F08BFF00F065FE10EE1C
:10DA5000901A18EE900A8DED020B8DED008B61F39C
:10DA60001E0003909DED020BFFF7BEBB944A24F00D
:10DA70000041914214D39349214408437FF4EFAC11
:10DA80009DED0C0B53EC102B9DED020B51EC100B8C
:10DA9000FBF762F853EC1A2BFBF7A6FB7FF6DFAC23
:10DAA00024F000408849894A002601EB2051824237
:10DAB0002BDA481C4FF4801121FA00F02044844AEC
:10DAC000C0F30A517A44A1F2FF3192ED000B814A72
:10DAD0008DED080BCA4020EA0202C0F3130040F4A7
